{
	"contractName": "MyNFT",
	"abi": [
		{
			"inputs": [
				{
					"internalType": "string",
					"name": "_name",
					"type": "string"
				},
				{
					"internalType": "string",
					"name": "_symbol",
					"type": "string"
				}
			],
			"stateMutability": "nonpayable",
			"type": "constructor"
		},
		{
			"anonymous": false,
			"inputs": [
				{
					"indexed": true,
					"internalType": "address",
					"name": "owner",
					"type": "address"
				},
				{
					"indexed": true,
					"internalType": "address",
					"name": "approved",
					"type": "address"
				},
				{
					"indexed": true,
					"internalType": "uint256",
					"name": "tokenId",
					"type": "uint256"
				}
			],
			"name": "Approval",
			"type": "event"
		},
		{
			"anonymous": false,
			"inputs": [
				{
					"indexed": true,
					"internalType": "address",
					"name": "owner",
					"type": "address"
				},
				{
					"indexed": true,
					"internalType": "address",
					"name": "operator",
					"type": "address"
				},
				{
					"indexed": false,
					"internalType": "bool",
					"name": "approved",
					"type": "bool"
				}
			],
			"name": "ApprovalForAll",
			"type": "event"
		},
		{
			"anonymous": false,
			"inputs": [
				{
					"indexed": true,
					"internalType": "bytes32",
					"name": "role",
					"type": "bytes32"
				},
				{
					"indexed": true,
					"internalType": "bytes32",
					"name": "previousAdminRole",
					"type": "bytes32"
				},
				{
					"indexed": true,
					"internalType": "bytes32",
					"name": "newAdminRole",
					"type": "bytes32"
				}
			],
			"name": "RoleAdminChanged",
			"type": "event"
		},
		{
			"anonymous": false,
			"inputs": [
				{
					"indexed": true,
					"internalType": "bytes32",
					"name": "role",
					"type": "bytes32"
				},
				{
					"indexed": true,
					"internalType": "address",
					"name": "account",
					"type": "address"
				},
				{
					"indexed": true,
					"internalType": "address",
					"name": "sender",
					"type": "address"
				}
			],
			"name": "RoleGranted",
			"type": "event"
		},
		{
			"anonymous": false,
			"inputs": [
				{
					"indexed": true,
					"internalType": "bytes32",
					"name": "role",
					"type": "bytes32"
				},
				{
					"indexed": true,
					"internalType": "address",
					"name": "account",
					"type": "address"
				},
				{
					"indexed": true,
					"internalType": "address",
					"name": "sender",
					"type": "address"
				}
			],
			"name": "RoleRevoked",
			"type": "event"
		},
		{
			"anonymous": false,
			"inputs": [
				{
					"indexed": true,
					"internalType": "address",
					"name": "from",
					"type": "address"
				},
				{
					"indexed": true,
					"internalType": "address",
					"name": "to",
					"type": "address"
				},
				{
					"indexed": true,
					"internalType": "uint256",
					"name": "tokenId",
					"type": "uint256"
				}
			],
			"name": "Transfer",
			"type": "event"
		},
		{
			"inputs": [],
			"name": "DEFAULT_ADMIN_ROLE",
			"outputs": [
				{
					"internalType": "bytes32",
					"name": "",
					"type": "bytes32"
				}
			],
			"stateMutability": "view",
			"type": "function"
		},
		{
			"inputs": [],
			"name": "FINANCIERA_ROLE",
			"outputs": [
				{
					"internalType": "bytes32",
					"name": "",
					"type": "bytes32"
				}
			],
			"stateMutability": "view",
			"type": "function"
		},
		{
			"inputs": [],
			"name": "MINTER_ROLE",
			"outputs": [
				{
					"internalType": "bytes32",
					"name": "",
					"type": "bytes32"
				}
			],
			"stateMutability": "view",
			"type": "function"
		},
		{
			"inputs": [
				{
					"internalType": "address",
					"name": "to",
					"type": "address"
				},
				{
					"internalType": "uint256",
					"name": "tokenId",
					"type": "uint256"
				}
			],
			"name": "approve",
			"outputs": [],
			"stateMutability": "nonpayable",
			"type": "function"
		},
		{
			"inputs": [
				{
					"internalType": "address",
					"name": "owner",
					"type": "address"
				}
			],
			"name": "balanceOf",
			"outputs": [
				{
					"internalType": "uint256",
					"name": "",
					"type": "uint256"
				}
			],
			"stateMutability": "view",
			"type": "function"
		},
		{
			"inputs": [
				{
					"internalType": "uint256",
					"name": "",
					"type": "uint256"
				}
			],
			"name": "fintechId",
			"outputs": [
				{
					"internalType": "uint256",
					"name": "",
					"type": "uint256"
				}
			],
			"stateMutability": "view",
			"type": "function"
		},
		{
			"inputs": [
				{
					"internalType": "uint256",
					"name": "tokenId",
					"type": "uint256"
				}
			],
			"name": "getApproved",
			"outputs": [
				{
					"internalType": "address",
					"name": "",
					"type": "address"
				}
			],
			"stateMutability": "view",
			"type": "function"
		},
		{
			"inputs": [
				{
					"internalType": "bytes32",
					"name": "role",
					"type": "bytes32"
				}
			],
			"name": "getRoleAdmin",
			"outputs": [
				{
					"internalType": "bytes32",
					"name": "",
					"type": "bytes32"
				}
			],
			"stateMutability": "view",
			"type": "function"
		},
		{
			"inputs": [
				{
					"internalType": "bytes32",
					"name": "role",
					"type": "bytes32"
				},
				{
					"internalType": "address",
					"name": "account",
					"type": "address"
				}
			],
			"name": "grantRole",
			"outputs": [],
			"stateMutability": "nonpayable",
			"type": "function"
		},
		{
			"inputs": [
				{
					"internalType": "bytes32",
					"name": "role",
					"type": "bytes32"
				},
				{
					"internalType": "address",
					"name": "account",
					"type": "address"
				}
			],
			"name": "hasRole",
			"outputs": [
				{
					"internalType": "bool",
					"name": "",
					"type": "bool"
				}
			],
			"stateMutability": "view",
			"type": "function"
		},
		{
			"inputs": [
				{
					"internalType": "address",
					"name": "owner",
					"type": "address"
				},
				{
					"internalType": "address",
					"name": "operator",
					"type": "address"
				}
			],
			"name": "isApprovedForAll",
			"outputs": [
				{
					"internalType": "bool",
					"name": "",
					"type": "bool"
				}
			],
			"stateMutability": "view",
			"type": "function"
		},
		{
			"inputs": [],
			"name": "name",
			"outputs": [
				{
					"internalType": "string",
					"name": "",
					"type": "string"
				}
			],
			"stateMutability": "view",
			"type": "function"
		},
		{
			"inputs": [
				{
					"internalType": "uint256",
					"name": "tokenId",
					"type": "uint256"
				}
			],
			"name": "ownerOf",
			"outputs": [
				{
					"internalType": "address",
					"name": "",
					"type": "address"
				}
			],
			"stateMutability": "view",
			"type": "function"
		},
		{
			"inputs": [
				{
					"internalType": "bytes32",
					"name": "role",
					"type": "bytes32"
				},
				{
					"internalType": "address",
					"name": "account",
					"type": "address"
				}
			],
			"name": "renounceRole",
			"outputs": [],
			"stateMutability": "nonpayable",
			"type": "function"
		},
		{
			"inputs": [
				{
					"internalType": "bytes32",
					"name": "role",
					"type": "bytes32"
				},
				{
					"internalType": "address",
					"name": "account",
					"type": "address"
				}
			],
			"name": "revokeRole",
			"outputs": [],
			"stateMutability": "nonpayable",
			"type": "function"
		},
		{
			"inputs": [
				{
					"internalType": "address",
					"name": "from",
					"type": "address"
				},
				{
					"internalType": "address",
					"name": "to",
					"type": "address"
				},
				{
					"internalType": "uint256",
					"name": "tokenId",
					"type": "uint256"
				}
			],
			"name": "safeTransferFrom",
			"outputs": [],
			"stateMutability": "nonpayable",
			"type": "function"
		},
		{
			"inputs": [
				{
					"internalType": "address",
					"name": "from",
					"type": "address"
				},
				{
					"internalType": "address",
					"name": "to",
					"type": "address"
				},
				{
					"internalType": "uint256",
					"name": "tokenId",
					"type": "uint256"
				},
				{
					"internalType": "bytes",
					"name": "_data",
					"type": "bytes"
				}
			],
			"name": "safeTransferFrom",
			"outputs": [],
			"stateMutability": "nonpayable",
			"type": "function"
		},
		{
			"inputs": [
				{
					"internalType": "address",
					"name": "operator",
					"type": "address"
				},
				{
					"internalType": "bool",
					"name": "approved",
					"type": "bool"
				}
			],
			"name": "setApprovalForAll",
			"outputs": [],
			"stateMutability": "nonpayable",
			"type": "function"
		},
		{
			"inputs": [
				{
					"internalType": "uint256",
					"name": "",
					"type": "uint256"
				}
			],
			"name": "structMetadata",
			"outputs": [
				{
					"internalType": "uint32",
					"name": "autonumericId",
					"type": "uint32"
				},
				{
					"internalType": "uint32",
					"name": "loanId",
					"type": "uint32"
				},
				{
					"internalType": "uint32",
					"name": "numeroDeCliente",
					"type": "uint32"
				},
				{
					"internalType": "uint32",
					"name": "fintechId",
					"type": "uint32"
				},
				{
					"internalType": "string",
					"name": "fechaDeCreacion",
					"type": "string"
				},
				{
					"internalType": "string",
					"name": "uriImagen",
					"type": "string"
				},
				{
					"internalType": "bytes32",
					"name": "hashRegistroBase",
					"type": "bytes32"
				}
			],
			"stateMutability": "view",
			"type": "function"
		},
		{
			"inputs": [],
			"name": "symbol",
			"outputs": [
				{
					"internalType": "string",
					"name": "",
					"type": "string"
				}
			],
			"stateMutability": "view",
			"type": "function"
		},
		{
			"inputs": [
				{
					"internalType": "uint256",
					"name": "tokenId",
					"type": "uint256"
				}
			],
			"name": "tokenURI",
			"outputs": [
				{
					"internalType": "string",
					"name": "",
					"type": "string"
				}
			],
			"stateMutability": "view",
			"type": "function"
		},
		{
			"inputs": [
				{
					"internalType": "address",
					"name": "from",
					"type": "address"
				},
				{
					"internalType": "address",
					"name": "to",
					"type": "address"
				},
				{
					"internalType": "uint256",
					"name": "tokenId",
					"type": "uint256"
				}
			],
			"name": "transferFrom",
			"outputs": [],
			"stateMutability": "nonpayable",
			"type": "function"
		},
		{
			"inputs": [
				{
					"internalType": "bytes4",
					"name": "interfaceId",
					"type": "bytes4"
				}
			],
			"name": "supportsInterface",
			"outputs": [
				{
					"internalType": "bool",
					"name": "",
					"type": "bool"
				}
			],
			"stateMutability": "view",
			"type": "function"
		},
		{
			"inputs": [
				{
					"internalType": "address",
					"name": "_address",
					"type": "address"
				}
			],
			"name": "isInAdminRole",
			"outputs": [
				{
					"internalType": "bool",
					"name": "",
					"type": "bool"
				}
			],
			"stateMutability": "view",
			"type": "function"
		},
		{
			"inputs": [
				{
					"internalType": "address",
					"name": "_address",
					"type": "address"
				}
			],
			"name": "isInMinterRole",
			"outputs": [
				{
					"internalType": "bool",
					"name": "",
					"type": "bool"
				}
			],
			"stateMutability": "view",
			"type": "function"
		},
		{
			"inputs": [
				{
					"internalType": "address",
					"name": "_address",
					"type": "address"
				}
			],
			"name": "isInFinancieraRole",
			"outputs": [
				{
					"internalType": "bool",
					"name": "",
					"type": "bool"
				}
			],
			"stateMutability": "view",
			"type": "function"
		},
		{
			"inputs": [
				{
					"internalType": "address",
					"name": "_minterAddress",
					"type": "address"
				},
				{
					"internalType": "string",
					"name": "_description",
					"type": "string"
				}
			],
			"name": "setMinterRole",
			"outputs": [],
			"stateMutability": "nonpayable",
			"type": "function"
		},
		{
			"inputs": [
				{
					"internalType": "address",
					"name": "_address",
					"type": "address"
				},
				{
					"internalType": "uint16",
					"name": "_fintechId",
					"type": "uint16"
				}
			],
			"name": "agregarFinanciera",
			"outputs": [],
			"stateMutability": "nonpayable",
			"type": "function"
		},
		{
			"inputs": [
				{
					"internalType": "address",
					"name": "_minterAddress",
					"type": "address"
				}
			],
			"name": "removeMinterRole",
			"outputs": [],
			"stateMutability": "nonpayable",
			"type": "function"
		},
		{
			"inputs": [
				{
					"internalType": "address",
					"name": "_minterAddress",
					"type": "address"
				}
			],
			"name": "removeFinancieraRole",
			"outputs": [],
			"stateMutability": "nonpayable",
			"type": "function"
		},
		{
			"inputs": [
				{
					"internalType": "uint256",
					"name": "_idFinanciera",
					"type": "uint256"
				}
			],
			"name": "removeFinanciera",
			"outputs": [],
			"stateMutability": "nonpayable",
			"type": "function"
		},
		{
			"inputs": [
				{
					"internalType": "uint256",
					"name": "_idNft",
					"type": "uint256"
				}
			],
			"name": "quemarNft",
			"outputs": [],
			"stateMutability": "nonpayable",
			"type": "function"
		},
		{
			"inputs": [],
			"name": "getArrayIdsFintech",
			"outputs": [
				{
					"internalType": "uint256[]",
					"name": "",
					"type": "uint256[]"
				}
			],
			"stateMutability": "view",
			"type": "function"
		},
		{
			"inputs": [],
			"name": "getNftsInAddress",
			"outputs": [
				{
					"internalType": "uint256[]",
					"name": "",
					"type": "uint256[]"
				}
			],
			"stateMutability": "view",
			"type": "function"
		},
		{
			"inputs": [
				{
					"internalType": "uint256",
					"name": "numeroDePag",
					"type": "uint256"
				},
				{
					"internalType": "uint256",
					"name": "tamanioDePagina",
					"type": "uint256"
				}
			],
			"name": "devolverPagina",
			"outputs": [
				{
					"internalType": "uint256[]",
					"name": "",
					"type": "uint256[]"
				}
			],
			"stateMutability": "view",
			"type": "function"
		},
		{
			"inputs": [
				{
					"internalType": "uint256",
					"name": "_idFinanciera",
					"type": "uint256"
				}
			],
			"name": "getAddressFinanciera",
			"outputs": [
				{
					"internalType": "address",
					"name": "",
					"type": "address"
				}
			],
			"stateMutability": "view",
			"type": "function"
		},
		{
			"inputs": [
				{
					"internalType": "bytes32",
					"name": "_hashMetadata",
					"type": "bytes32"
				},
				{
					"internalType": "uint256",
					"name": "_tokenNft",
					"type": "uint256"
				}
			],
			"name": "compareMeta",
			"outputs": [
				{
					"internalType": "bool",
					"name": "",
					"type": "bool"
				}
			],
			"stateMutability": "view",
			"type": "function"
		},
		{
			"inputs": [
				{
					"internalType": "uint256",
					"name": "_tokenNft",
					"type": "uint256"
				}
			],
			"name": "getHashMetadataHashBase",
			"outputs": [
				{
					"internalType": "bytes32",
					"name": "",
					"type": "bytes32"
				}
			],
			"stateMutability": "view",
			"type": "function"
		},
		{
			"inputs": [
				{
					"internalType": "address",
					"name": "_address",
					"type": "address"
				}
			],
			"name": "getVecHashMetadataBaseInAddress",
			"outputs": [
				{
					"internalType": "bytes32[]",
					"name": "",
					"type": "bytes32[]"
				}
			],
			"stateMutability": "view",
			"type": "function"
		},
		{
			"inputs": [
				{
					"internalType": "address",
					"name": "_minterAddress",
					"type": "address"
				}
			],
			"name": "getDescriptionMinter",
			"outputs": [
				{
					"internalType": "string",
					"name": "",
					"type": "string"
				}
			],
			"stateMutability": "view",
			"type": "function"
		},
		{
			"inputs": [
				{
					"internalType": "address",
					"name": "_to",
					"type": "address"
				},
				{
					"internalType": "uint256",
					"name": "_nftId",
					"type": "uint256"
				}
			],
			"name": "transferNft",
			"outputs": [],
			"stateMutability": "nonpayable",
			"type": "function"
		},
		{
			"inputs": [
				{
					"internalType": "address",
					"name": "_recipient",
					"type": "address"
				},
				{
					"internalType": "string",
					"name": "_tokenURI",
					"type": "string"
				},
				{
					"components": [
						{
							"internalType": "uint32",
							"name": "autonumericId",
							"type": "uint32"
						},
						{
							"internalType": "uint32",
							"name": "loanId",
							"type": "uint32"
						},
						{
							"internalType": "uint32",
							"name": "numeroDeCliente",
							"type": "uint32"
						},
						{
							"internalType": "uint32",
							"name": "fintechId",
							"type": "uint32"
						},
						{
							"internalType": "string",
							"name": "fechaDeCreacion",
							"type": "string"
						},
						{
							"internalType": "string",
							"name": "uriImagen",
							"type": "string"
						},
						{
							"internalType": "bytes32",
							"name": "hashRegistroBase",
							"type": "bytes32"
						}
					],
					"internalType": "struct MyNFT.Metadata",
					"name": "_metadata",
					"type": "tuple"
				}
			],
			"name": "mintNFT",
			"outputs": [
				{
					"internalType": "bytes32",
					"name": "",
					"type": "bytes32"
				}
			],
			"stateMutability": "nonpayable",
			"type": "function"
		}
	],
	"bytecode": "0x60806040523480156200001157600080fd5b506040516200615838038062006158833981810160405281019062000037919062000452565b818181600090805190602001906200005192919062000205565b5080600190805190602001906200006a92919062000205565b505050620000826000801b336200008a60201b60201c565b50506200053c565b6200009c8282620000a060201b60201c565b5050565b620000b282826200019260201b60201c565b6200018e5760016007600084815260200190815260200160002060000160008373ffffffffffffffffffffffffffffffffffffffff1673ffffffffffffffffffffffffffffffffffffffff16815260200190815260200160002060006101000a81548160ff02191690831515021790555062000133620001fd60201b60201c565b73ffffffffffffffffffffffffffffffffffffffff168173ffffffffffffffffffffffffffffffffffffffff16837f2f8788117e7eff1d82e926ec794901d17c78024a50270940304540a733656f0d60405160405180910390a45b5050565b60006007600084815260200190815260200160002060000160008373ffffffffffffffffffffffffffffffffffffffff1673ffffffffffffffffffffffffffffffffffffffff16815260200190815260200160002060009054906101000a900460ff16905092915050565b600033905090565b828054620002139062000506565b90600052602060002090601f01602090048101928262000237576000855562000283565b82601f106200025257805160ff191683800117855562000283565b8280016001018555821562000283579182015b828111156200028257825182559160200191906001019062000265565b5b50905062000292919062000296565b5090565b5b80821115620002b157600081600090555060010162000297565b5090565b6000604051905090565b600080fd5b600080fd5b600080fd5b600080fd5b6000601f19601f8301169050919050565b7f4e487b7100000000000000000000000000000000000000000000000000000000600052604160045260246000fd5b6200031e82620002d3565b810181811067ffffffffffffffff8211171562000340576200033f620002e4565b5b80604052505050565b600062000355620002b5565b905062000363828262000313565b919050565b600067ffffffffffffffff821115620003865762000385620002e4565b5b6200039182620002d3565b9050602081019050919050565b60005b83811015620003be578082015181840152602081019050620003a1565b83811115620003ce576000848401525b50505050565b6000620003eb620003e58462000368565b62000349565b9050828152602081018484840111156200040a5762000409620002ce565b5b620004178482856200039e565b509392505050565b600082601f830112620004375762000436620002c9565b5b815162000449848260208601620003d4565b91505092915050565b600080604083850312156200046c576200046b620002bf565b5b600083015167ffffffffffffffff8111156200048d576200048c620002c4565b5b6200049b858286016200041f565b925050602083015167ffffffffffffffff811115620004bf57620004be620002c4565b5b620004cd858286016200041f565b9150509250929050565b7f4e487b7100000000000000000000000000000000000000000000000000000000600052602260045260246000fd5b600060028204905060018216806200051f57607f821691505b60208210811415620005365762000535620004d7565b5b50919050565b615c0c806200054c6000396000f3fe608060405234801561001057600080fd5b506004361061025e5760003560e01c806378190bba11610146578063c87b56dd116100c3578063e017eedc11610087578063e017eedc146107a7578063e7a82a01146107d7578063e985e9c5146107f3578063ef75651d14610823578063f7eb6c9b14610853578063f9e72ab71461086f5761025e565b8063c87b56dd14610705578063cc5a08c314610735578063cd0d700f14610751578063d53913931461076d578063d547741f1461078b5761025e565b8063a217fddf1161010a578063a217fddf1461064f578063a22cb4651461066d578063b88d4fde14610689578063c4713e12146106a5578063c4ce702a146106d55761025e565b806378190bba1461057d5780638b118ad1146105b357806391d14854146105e357806395d89b41146106135780639a66a65c146106315761025e565b806328255908116101df57806342842e0e116101a357806342842e0e1461049957806354f1e126146104b557806360cc1121146104d15780636352211e146104ed5780636899ab631461051d57806370a082311461054d5761025e565b806328255908146103e35780632f2ff15d1461041357806336568abe1461042f5780633d59dde01461044b5780633f79f994146104695761025e565b8063105c376711610226578063105c37671461032d5780631727679d1461035d57806320f1e60e1461037b57806323b872dd14610397578063248a9ca3146103b35761025e565b806301ffc9a71461026357806306fdde0314610293578063081812fc146102b157806309381ff6146102e1578063095ea7b314610311575b600080fd5b61027d60048036038101906102789190613e67565b61089f565b60405161028a9190613eaf565b60405180910390f35b61029b6108b1565b6040516102a89190613f63565b60405180910390f35b6102cb60048036038101906102c69190613fbb565b610943565b6040516102d89190614029565b60405180910390f35b6102fb60048036038101906102f69190614070565b6109c8565b6040516103089190613f63565b60405180910390f35b61032b6004803603810190610326919061409d565b610a99565b005b61034760048036038101906103429190613fbb565b610bb1565b60405161035491906140f6565b60405180910390f35b610365610c46565b60405161037291906141cf565b60405180910390f35b6103956004803603810190610390919061422b565b610c9e565b005b6103b160048036038101906103ac919061426b565b610e07565b005b6103cd60048036038101906103c891906142ea565b610e67565b6040516103da91906140f6565b60405180910390f35b6103fd60048036038101906103f89190613fbb565b610e87565b60405161040a9190614029565b60405180910390f35b61042d60048036038101906104289190614317565b610f2f565b005b61044960048036038101906104449190614317565b610f58565b005b610453610fdb565b60405161046091906140f6565b60405180910390f35b610483600480360381019061047e91906145be565b610fff565b60405161049091906140f6565b60405180910390f35b6104b360048036038101906104ae919061426b565b611311565b005b6104cf60048036038101906104ca9190614070565b611331565b005b6104eb60048036038101906104e6919061409d565b611462565b005b61050760048036038101906105029190613fbb565b6116ce565b6040516105149190614029565b60405180910390f35b61053760048036038101906105329190614070565b611780565b6040516105449190613eaf565b60405180910390f35b61056760048036038101906105629190614070565b6117a7565b6040516105749190614658565b60405180910390f35b61059760048036038101906105929190613fbb565b61185f565b6040516105aa9796959493929190614682565b60405180910390f35b6105cd60048036038101906105c891906146ff565b6119f1565b6040516105da91906141cf565b60405180910390f35b6105fd60048036038101906105f89190614317565b611b6c565b60405161060a9190613eaf565b60405180910390f35b61061b611bd7565b6040516106289190613f63565b60405180910390f35b610639611c69565b60405161064691906141cf565b60405180910390f35b610657611d69565b60405161066491906140f6565b60405180910390f35b6106876004803603810190610682919061476b565b611d70565b005b6106a3600480360381019061069e919061484c565b611d86565b005b6106bf60048036038101906106ba91906148cf565b611de8565b6040516106cc9190613eaf565b60405180910390f35b6106ef60048036038101906106ea9190614070565b611e19565b6040516106fc9190613eaf565b60405180910390f35b61071f600480360381019061071a9190613fbb565b611e5d565b60405161072c9190613f63565b60405180910390f35b61074f600480360381019061074a9190613fbb565b611faf565b005b61076b6004803603810190610766919061490f565b6124c9565b005b610775612599565b60405161078291906140f6565b60405180910390f35b6107a560048036038101906107a09190614317565b6125bd565b005b6107c160048036038101906107bc9190614070565b6125e6565b6040516107ce9190614a29565b60405180910390f35b6107f160048036038101906107ec9190613fbb565b61267d565b005b61080d60048036038101906108089190614a4b565b6126d7565b60405161081a9190613eaf565b60405180910390f35b61083d60048036038101906108389190614070565b61276b565b60405161084a9190613eaf565b60405180910390f35b61086d60048036038101906108689190614070565b6127af565b005b61088960048036038101906108849190613fbb565b612878565b6040516108969190614658565b60405180910390f35b60006108aa8261289c565b9050919050565b6060600080546108c090614aba565b80601f01602080910402602001604051908101604052809291908181526020018280546108ec90614aba565b80156109395780601f1061090e57610100808354040283529160200191610939565b820191906000526020600020905b81548152906001019060200180831161091c57829003601f168201915b5050505050905090565b600061094e82612916565b61098d576040517f08c379a000000000000000000000000000000000000000000000000000000000815260040161098490614b5e565b60405180910390fd5b6004600083815260200190815260200160002060009054906101000a900473ffffffffffffffffffffffffffffffffffffffff169050919050565b6060600e60008373ffffffffffffffffffffffffffffffffffffffff1673ffffffffffffffffffffffffffffffffffffffff1681526020019081526020016000208054610a1490614aba565b80601f0160208091040260200160405190810160405280929190818152602001828054610a4090614aba565b8015610a8d5780601f10610a6257610100808354040283529160200191610a8d565b820191906000526020600020905b815481529060010190602001808311610a7057829003601f168201915b50505050509050919050565b6000610aa4826116ce565b90508073ffffffffffffffffffffffffffffffffffffffff168373ffffffffffffffffffffffffffffffffffffffff161415610b15576040517f08c379a0000000000000000000000000000000000000000000000000000000008152600401610b0c90614bf0565b60405180910390fd5b8073ffffffffffffffffffffffffffffffffffffffff16610b34612982565b73ffffffffffffffffffffffffffffffffffffffff161480610b635750610b6281610b5d612982565b6126d7565b5b610ba2576040517f08c379a0000000000000000000000000000000000000000000000000000000008152600401610b9990614c82565b60405180910390fd5b610bac838361298a565b505050565b6000813373ffffffffffffffffffffffffffffffffffffffff16610bd4826116ce565b73ffffffffffffffffffffffffffffffffffffffff1614610c2a576040517f08c379a0000000000000000000000000000000000000000000000000000000008152600401610c2190614d14565b60405180910390fd5b600a600084815260200190815260200160002054915050919050565b6060600f805480602002602001604051908101604052809291908181526020018280548015610c9457602002820191906000526020600020905b815481526020019060010190808311610c80575b5050505050905090565b33610cac6000801b82611b6c565b610ceb576040517f08c379a0000000000000000000000000000000000000000000000000000000008152600401610ce290614da6565b60405180910390fd5b610d157fadf4c6cfcd692c014283a83b960ed287d42d87d572653905a781108ca448fccf84611b6c565b15610d55576040517f08c379a0000000000000000000000000000000000000000000000000000000008152600401610d4c90614e12565b60405180910390fd5b82600c60008461ffff16815260200190815260200160002060006101000a81548173ffffffffffffffffffffffffffffffffffffffff021916908373ffffffffffffffffffffffffffffffffffffffff160217905550610dd57fadf4c6cfcd692c014283a83b960ed287d42d87d572653905a781108ca448fccf84610f2f565b600f82908060018154018082558091505060019003906000526020600020016000909161ffff16909190915055505050565b610e18610e12612982565b82612a43565b610e57576040517f08c379a0000000000000000000000000000000000000000000000000000000008152600401610e4e90614ea4565b60405180910390fd5b610e62838383612b21565b505050565b600060076000838152602001908152602001600020600101549050919050565b600033610eb47f9f2df0fed2c77648de5860a4cc508cd0818c85b8b8a1ab4ceeef8d981c8956a682611b6c565b610ef3576040517f08c379a0000000000000000000000000000000000000000000000000000000008152600401610eea90614f36565b60405180910390fd5b600c600084815260200190815260200160002060009054906101000a900473ffffffffffffffffffffffffffffffffffffffff16915050919050565b610f3882610e67565b610f4981610f44612982565b612d7d565b610f538383612e1a565b505050565b610f60612982565b73ffffffffffffffffffffffffffffffffffffffff168173ffffffffffffffffffffffffffffffffffffffff1614610fcd576040517f08c379a0000000000000000000000000000000000000000000000000000000008152600401610fc490614fc8565b60405180910390fd5b610fd78282612efb565b5050565b7fadf4c6cfcd692c014283a83b960ed287d42d87d572653905a781108ca448fccf81565b60003361102c7f9f2df0fed2c77648de5860a4cc508cd0818c85b8b8a1ab4ceeef8d981c8956a682611b6c565b61106b576040517f08c379a000000000000000000000000000000000000000000000000000000000815260040161106290614f36565b60405180910390fd5b846110967fadf4c6cfcd692c014283a83b960ed287d42d87d572653905a781108ca448fccf82611b6c565b6110d5576040517f08c379a00000000000000000000000000000000000000000000000000000000081526004016110cc9061505a565b60405180910390fd5b6001600860008282546110e891906150a9565b925050819055508360096000600854815260200190815260200160002060008201518160000160006101000a81548163ffffffff021916908363ffffffff16021790555060208201518160000160046101000a81548163ffffffff021916908363ffffffff16021790555060408201518160000160086101000a81548163ffffffff021916908363ffffffff160217905550606082015181600001600c6101000a81548163ffffffff021916908363ffffffff16021790555060808201518160010190805190602001906111bd929190613cb9565b5060a08201518160020190805190602001906111da929190613cb9565b5060c08201518160030155905050600d60008773ffffffffffffffffffffffffffffffffffffffff1673ffffffffffffffffffffffffffffffffffffffff16815260200190815260200160002060085490806001815401808255809150506001900390600052602060002001600090919091909150558360c00151600a6000600854815260200190815260200160002081905550600b60008773ffffffffffffffffffffffffffffffffffffffff1673ffffffffffffffffffffffffffffffffffffffff1681526020019081526020016000208460c0015190806001815401808255809150506001900390600052602060002001600090919091909150556112e486600854612fdd565b6112f0600854866131ab565b600a6000600854815260200190815260200160002054925050509392505050565b61132c83838360405180602001604052806000815250611d86565b505050565b3361133f6000801b82611b6c565b61137e576040517f08c379a000000000000000000000000000000000000000000000000000000000815260040161137590614da6565b60405180910390fd5b816113a97f9f2df0fed2c77648de5860a4cc508cd0818c85b8b8a1ab4ceeef8d981c8956a682611b6c565b6113e8576040517f08c379a00000000000000000000000000000000000000000000000000000000081526004016113df90614f36565b60405180910390fd5b6114127f9f2df0fed2c77648de5860a4cc508cd0818c85b8b8a1ab4ceeef8d981c8956a6846125bd565b600e60008473ffffffffffffffffffffffffffffffffffffffff1673ffffffffffffffffffffffffffffffffffffffff168152602001908152602001600020600061145d9190613d3f565b505050565b3361148d7fadf4c6cfcd692c014283a83b960ed287d42d87d572653905a781108ca448fccf82611b6c565b6114cc576040517f08c379a00000000000000000000000000000000000000000000000000000000081526004016114c39061505a565b60405180910390fd5b6114d7338484610e07565b600d60008473ffffffffffffffffffffffffffffffffffffffff1673ffffffffffffffffffffffffffffffffffffffff1681526020019081526020016000208290806001815401808255809150506001900390600052602060002001600090919091909150556000600d60003373ffffffffffffffffffffffffffffffffffffffff1673ffffffffffffffffffffffffffffffffffffffff1681526020019081526020016000208054806020026020016040519081016040528092919081815260200182805480156115c857602002820191906000526020600020905b8154815260200190600101908083116115b4575b5050505050905060005b81518110156116c757838282815181106115ef576115ee6150ff565b5b602002602001015114156116b4576000826001845161160e919061512e565b8151811061161f5761161e6150ff565b5b602002602001015190508083838151811061163d5761163c6150ff565b5b602002602001018181525050600d60003373ffffffffffffffffffffffffffffffffffffffff1673ffffffffffffffffffffffffffffffffffffffff16815260200190815260200160002080548061169857611697615162565b5b60019003818190600052602060002001600090559055506116c7565b80806116bf90615191565b9150506115d2565b5050505050565b6000806002600084815260200190815260200160002060009054906101000a900473ffffffffffffffffffffffffffffffffffffffff169050600073ffffffffffffffffffffffffffffffffffffffff168173ffffffffffffffffffffffffffffffffffffffff161415611777576040517f08c379a000000000000000000000000000000000000000000000000000000000815260040161176e9061524c565b60405180910390fd5b80915050919050565b600061178f6000801b83611b6c565b1561179d57600190506117a2565b600090505b919050565b60008073ffffffffffffffffffffffffffffffffffffffff168273ffffffffffffffffffffffffffffffffffffffff161415611818576040517f08c379a000000000000000000000000000000000000000000000000000000000815260040161180f906152de565b60405180910390fd5b600360008373ffffffffffffffffffffffffffffffffffffffff1673ffffffffffffffffffffffffffffffffffffffff168152602001908152602001600020549050919050565b60096020528060005260406000206000915090508060000160009054906101000a900463ffffffff16908060000160049054906101000a900463ffffffff16908060000160089054906101000a900463ffffffff169080600001600c9054906101000a900463ffffffff16908060010180546118da90614aba565b80601f016020809104026020016040519081016040528092919081815260200182805461190690614aba565b80156119535780601f1061192857610100808354040283529160200191611953565b820191906000526020600020905b81548152906001019060200180831161193657829003601f168201915b50505050509080600201805461196890614aba565b80601f016020809104026020016040519081016040528092919081815260200182805461199490614aba565b80156119e15780601f106119b6576101008083540402835291602001916119e1565b820191906000526020600020905b8154815290600101906020018083116119c457829003601f168201915b5050505050908060030154905087565b606060008284611a0191906152fe565b905060008367ffffffffffffffff811115611a1f57611a1e614361565b5b604051908082528060200260200182016040528015611a4d5781602001602082028036833780820191505090505b5090506000808390505b8584611a6391906150a9565b81108015611abe57506001600d60003373ffffffffffffffffffffffffffffffffffffffff1673ffffffffffffffffffffffffffffffffffffffff16815260200190815260200160002080549050611abb919061512e565b81105b15611b5f57600d60003373ffffffffffffffffffffffffffffffffffffffff1673ffffffffffffffffffffffffffffffffffffffff1681526020019081526020016000208181548110611b1457611b136150ff565b5b9060005260206000200154838381518110611b3257611b316150ff565b5b6020026020010181815250508180611b4990615191565b9250508080611b5790615191565b915050611a57565b5081935050505092915050565b60006007600084815260200190815260200160002060000160008373ffffffffffffffffffffffffffffffffffffffff1673ffffffffffffffffffffffffffffffffffffffff16815260200190815260200160002060009054906101000a900460ff16905092915050565b606060018054611be690614aba565b80601f0160208091040260200160405190810160405280929190818152602001828054611c1290614aba565b8015611c5f5780601f10611c3457610100808354040283529160200191611c5f565b820191906000526020600020905b815481529060010190602001808311611c4257829003601f168201915b5050505050905090565b606033611c967fadf4c6cfcd692c014283a83b960ed287d42d87d572653905a781108ca448fccf82611b6c565b611cd5576040517f08c379a0000000000000000000000000000000000000000000000000000000008152600401611ccc9061505a565b60405180910390fd5b600d60003373ffffffffffffffffffffffffffffffffffffffff1673ffffffffffffffffffffffffffffffffffffffff168152602001908152602001600020805480602002602001604051908101604052809291908181526020018280548015611d5e57602002820191906000526020600020905b815481526020019060010190808311611d4a575b505050505091505090565b6000801b81565b611d82611d7b612982565b838361321f565b5050565b611d97611d91612982565b83612a43565b611dd6576040517f08c379a0000000000000000000000000000000000000000000000000000000008152600401611dcd90614ea4565b60405180910390fd5b611de28484848461338c565b50505050565b6000600a600083815260200190815260200160002054831415611e0e5760019050611e13565b600090505b92915050565b6000611e457fadf4c6cfcd692c014283a83b960ed287d42d87d572653905a781108ca448fccf83611b6c565b15611e535760019050611e58565b600090505b919050565b6060611e6882612916565b611ea7576040517f08c379a0000000000000000000000000000000000000000000000000000000008152600401611e9e906153ca565b60405180910390fd5b6000600660008481526020019081526020016000208054611ec790614aba565b80601f0160208091040260200160405190810160405280929190818152602001828054611ef390614aba565b8015611f405780601f10611f1557610100808354040283529160200191611f40565b820191906000526020600020905b815481529060010190602001808311611f2357829003601f168201915b505050505090506000611f516133e8565b9050600081511415611f67578192505050611faa565b600082511115611f9c578082604051602001611f84929190615426565b60405160208183030381529060405292505050611faa565b611fa584613425565b925050505b919050565b33611fbd6000801b82611b6c565b611ffc576040517f08c379a0000000000000000000000000000000000000000000000000000000008152600401611ff390614da6565b60405180910390fd5b600c600083815260200190815260200160002060009054906101000a900473ffffffffffffffffffffffffffffffffffffffff1661205a7fadf4c6cfcd692c014283a83b960ed287d42d87d572653905a781108ca448fccf82611b6c565b612099576040517f08c379a00000000000000000000000000000000000000000000000000000000081526004016120909061505a565b60405180910390fd5b6000600d6000600c600087815260200190815260200160002060009054906101000a900473ffffffffffffffffffffffffffffffffffffffff1673ffffffffffffffffffffffffffffffffffffffff1673ffffffffffffffffffffffffffffffffffffffff16815260200190815260200160002080548060200260200160405190810160405280929190818152602001828054801561215757602002820191906000526020600020905b815481526020019060010190808311612143575b5050505050905060005b81518110156122855760096000838381518110612181576121806150ff565b5b60200260200101518152602001908152602001600020600080820160006101000a81549063ffffffff02191690556000820160046101000a81549063ffffffff02191690556000820160086101000a81549063ffffffff021916905560008201600c6101000a81549063ffffffff02191690556001820160006122049190613d3f565b6002820160006122149190613d3f565b60038201600090555050600a6000838381518110612235576122346150ff565b5b6020026020010151815260200190815260200160002060009055612272828281518110612265576122646150ff565b5b60200260200101516134cc565b808061227d90615191565b915050612161565b50600b6000600c600087815260200190815260200160002060009054906101000a900473ffffffffffffffffffffffffffffffffffffffff1673ffffffffffffffffffffffffffffffffffffffff1673ffffffffffffffffffffffffffffffffffffffff16815260200190815260200160002060006123049190613d7f565b600d6000600c600087815260200190815260200160002060009054906101000a900473ffffffffffffffffffffffffffffffffffffffff1673ffffffffffffffffffffffffffffffffffffffff1673ffffffffffffffffffffffffffffffffffffffff16815260200190815260200160002060006123829190613da0565b6123be600c600086815260200190815260200160002060009054906101000a900473ffffffffffffffffffffffffffffffffffffffff166127af565b600c600085815260200190815260200160002060006101000a81549073ffffffffffffffffffffffffffffffffffffffff021916905560005b600f805490508110156124c25784600f8281548110612419576124186150ff565b5b906000526020600020015414156124af576000600f6001600f80549050612440919061512e565b81548110612451576124506150ff565b5b9060005260206000200154905080600f8381548110612473576124726150ff565b5b9060005260206000200181905550600f80548061249357612492615162565b5b60019003818190600052602060002001600090559055506124c2565b80806124ba90615191565b9150506123f7565b5050505050565b336124d76000801b82611b6c565b612516576040517f08c379a000000000000000000000000000000000000000000000000000000000815260040161250d90614da6565b60405180910390fd5b6125407f9f2df0fed2c77648de5860a4cc508cd0818c85b8b8a1ab4ceeef8d981c8956a684610f2f565b81600e60008573ffffffffffffffffffffffffffffffffffffffff1673ffffffffffffffffffffffffffffffffffffffff1681526020019081526020016000209080519060200190612593929190613cb9565b50505050565b7f9f2df0fed2c77648de5860a4cc508cd0818c85b8b8a1ab4ceeef8d981c8956a681565b6125c682610e67565b6125d7816125d2612982565b612d7d565b6125e18383612efb565b505050565b6060600b60008373ffffffffffffffffffffffffffffffffffffffff1673ffffffffffffffffffffffffffffffffffffffff16815260200190815260200160002080548060200260200160405190810160405280929190818152602001828054801561267157602002820191906000526020600020905b81548152602001906001019080831161265d575b50505050509050919050565b3361268b6000801b82611b6c565b6126ca576040517f08c379a00000000000000000000000000000000000000000000000000000000081526004016126c190614da6565b60405180910390fd5b6126d3826134cc565b5050565b6000600560008473ffffffffffffffffffffffffffffffffffffffff1673ffffffffffffffffffffffffffffffffffffffff16815260200190815260200160002060008373ffffffffffffffffffffffffffffffffffffffff1673ffffffffffffffffffffffffffffffffffffffff16815260200190815260200160002060009054906101000a900460ff16905092915050565b60006127977f9f2df0fed2c77648de5860a4cc508cd0818c85b8b8a1ab4ceeef8d981c8956a683611b6c565b156127a557600190506127aa565b600090505b919050565b336127bd6000801b82611b6c565b6127fc576040517f08c379a00000000000000000000000000000000000000000000000000000000081526004016127f390614da6565b60405180910390fd5b8161280a6000801b82611b6c565b612849576040517f08c379a000000000000000000000000000000000000000000000000000000000815260040161284090614da6565b60405180910390fd5b6128737fadf4c6cfcd692c014283a83b960ed287d42d87d572653905a781108ca448fccf846125bd565b505050565b600f818154811061288857600080fd5b906000526020600020016000915090505481565b60007f7965db0b000000000000000000000000000000000000000000000000000000007bffffffffffffffffffffffffffffffffffffffffffffffffffffffff1916827bffffffffffffffffffffffffffffffffffffffffffffffffffffffff1916148061290f575061290e8261351f565b5b9050919050565b60008073ffffffffffffffffffffffffffffffffffffffff166002600084815260200190815260200160002060009054906101000a900473ffffffffffffffffffffffffffffffffffffffff1673ffffffffffffffffffffffffffffffffffffffff1614159050919050565b600033905090565b816004600083815260200190815260200160002060006101000a81548173ffffffffffffffffffffffffffffffffffffffff021916908373ffffffffffffffffffffffffffffffffffffffff160217905550808273ffffffffffffffffffffffffffffffffffffffff166129fd836116ce565b73ffffffffffffffffffffffffffffffffffffffff167f8c5be1e5ebec7d5bd14f71427d1e84f3dd0314c0f7b2291e5b200ac8c7c3b92560405160405180910390a45050565b6000612a4e82612916565b612a8d576040517f08c379a0000000000000000000000000000000000000000000000000000000008152600401612a84906154bc565b60405180910390fd5b6000612a98836116ce565b90508073ffffffffffffffffffffffffffffffffffffffff168473ffffffffffffffffffffffffffffffffffffffff161480612b0757508373ffffffffffffffffffffffffffffffffffffffff16612aef84610943565b73ffffffffffffffffffffffffffffffffffffffff16145b80612b185750612b1781856126d7565b5b91505092915050565b8273ffffffffffffffffffffffffffffffffffffffff16612b41826116ce565b73ffffffffffffffffffffffffffffffffffffffff1614612b97576040517f08c379a0000000000000000000000000000000000000000000000000000000008152600401612b8e9061554e565b60405180910390fd5b600073ffffffffffffffffffffffffffffffffffffffff168273ffffffffffffffffffffffffffffffffffffffff161415612c07576040517f08c379a0000000000000000000000000000000000000000000000000000000008152600401612bfe906155e0565b60405180910390fd5b612c12838383613601565b612c1d60008261298a565b6001600360008573ffffffffffffffffffffffffffffffffffffffff1673ffffffffffffffffffffffffffffffffffffffff1681526020019081526020016000206000828254612c6d919061512e565b925050819055506001600360008473ffffffffffffffffffffffffffffffffffffffff1673ffffffffffffffffffffffffffffffffffffffff1681526020019081526020016000206000828254612cc491906150a9565b92505081905550816002600083815260200190815260200160002060006101000a81548173ffffffffffffffffffffffffffffffffffffffff021916908373ffffffffffffffffffffffffffffffffffffffff160217905550808273ffffffffffffffffffffffffffffffffffffffff168473ffffffffffffffffffffffffffffffffffffffff167fddf252ad1be2c89b69c2b068fc378daa952ba7f163c4a11628f55a4df523b3ef60405160405180910390a4505050565b612d878282611b6c565b612e1657612dac8173ffffffffffffffffffffffffffffffffffffffff166014613606565b612dba8360001c6020613606565b604051602001612dcb929190615698565b6040516020818303038152906040526040517f08c379a0000000000000000000000000000000000000000000000000000000008152600401612e0d9190613f63565b60405180910390fd5b5050565b612e248282611b6c565b612ef75760016007600084815260200190815260200160002060000160008373ffffffffffffffffffffffffffffffffffffffff1673ffffffffffffffffffffffffffffffffffffffff16815260200190815260200160002060006101000a81548160ff021916908315150217905550612e9c612982565b73ffffffffffffffffffffffffffffffffffffffff168173ffffffffffffffffffffffffffffffffffffffff16837f2f8788117e7eff1d82e926ec794901d17c78024a50270940304540a733656f0d60405160405180910390a45b5050565b612f058282611b6c565b15612fd95760006007600084815260200190815260200160002060000160008373ffffffffffffffffffffffffffffffffffffffff1673ffffffffffffffffffffffffffffffffffffffff16815260200190815260200160002060006101000a81548160ff021916908315150217905550612f7e612982565b73ffffffffffffffffffffffffffffffffffffffff168173ffffffffffffffffffffffffffffffffffffffff16837ff6391f5c32d9c69d2a47ea670b442974b53935d1edc7fd64eb21e047a839171b60405160405180910390a45b5050565b600073ffffffffffffffffffffffffffffffffffffffff168273ffffffffffffffffffffffffffffffffffffffff16141561304d576040517f08c379a00000000000000000000000000000000000000000000000000000000081526004016130449061571e565b60405180910390fd5b61305681612916565b15613096576040517f08c379a000000000000000000000000000000000000000000000000000000000815260040161308d9061578a565b60405180910390fd5b6130a260008383613601565b6001600360008473ffffffffffffffffffffffffffffffffffffffff1673ffffffffffffffffffffffffffffffffffffffff16815260200190815260200160002060008282546130f291906150a9565b92505081905550816002600083815260200190815260200160002060006101000a81548173ffffffffffffffffffffffffffffffffffffffff021916908373ffffffffffffffffffffffffffffffffffffffff160217905550808273ffffffffffffffffffffffffffffffffffffffff16600073ffffffffffffffffffffffffffffffffffffffff167fddf252ad1be2c89b69c2b068fc378daa952ba7f163c4a11628f55a4df523b3ef60405160405180910390a45050565b6131b482612916565b6131f3576040517f08c379a00000000000000000000000000000000000000000000000000000000081526004016131ea9061581c565b60405180910390fd5b8060066000848152602001908152602001600020908051906020019061321a929190613cb9565b505050565b8173ffffffffffffffffffffffffffffffffffffffff168373ffffffffffffffffffffffffffffffffffffffff16141561328e576040517f08c379a000000000000000000000000000000000000000000000000000000000815260040161328590615888565b60405180910390fd5b80600560008573ffffffffffffffffffffffffffffffffffffffff1673ffffffffffffffffffffffffffffffffffffffff16815260200190815260200160002060008473ffffffffffffffffffffffffffffffffffffffff1673ffffffffffffffffffffffffffffffffffffffff16815260200190815260200160002060006101000a81548160ff0219169083151502179055508173ffffffffffffffffffffffffffffffffffffffff168373ffffffffffffffffffffffffffffffffffffffff167f17307eab39ab6107e8899845ad3d59bd9653f200f220920489ca2b5937696c318360405161337f9190613eaf565b60405180910390a3505050565b613397848484612b21565b6133a384848484613842565b6133e2576040517f08c379a00000000000000000000000000000000000000000000000000000000081526004016133d99061591a565b60405180910390fd5b50505050565b60606040518060400160405280601581526020017f68747470733a2f2f697066732e696f2f697066732f0000000000000000000000815250905090565b606061343082612916565b61346f576040517f08c379a0000000000000000000000000000000000000000000000000000000008152600401613466906159ac565b60405180910390fd5b60006134796133e8565b9050600081511161349957604051806020016040528060008152506134c4565b806134a3846139ca565b6040516020016134b4929190615426565b6040516020818303038152906040525b915050919050565b6134d581613b2b565b60006006600083815260200190815260200160002080546134f590614aba565b90501461351c5760066000828152602001908152602001600020600061351b9190613d3f565b5b50565b60007f80ac58cd000000000000000000000000000000000000000000000000000000007bffffffffffffffffffffffffffffffffffffffffffffffffffffffff1916827bffffffffffffffffffffffffffffffffffffffffffffffffffffffff191614806135ea57507f5b5e139f000000000000000000000000000000000000000000000000000000007bffffffffffffffffffffffffffffffffffffffffffffffffffffffff1916827bffffffffffffffffffffffffffffffffffffffffffffffffffffffff1916145b806135fa57506135f982613c3c565b5b9050919050565b505050565b60606000600283600261361991906152fe565b61362391906150a9565b67ffffffffffffffff81111561363c5761363b614361565b5b6040519080825280601f01601f19166020018201604052801561366e5781602001600182028036833780820191505090505b5090507f3000000000000000000000000000000000000000000000000000000000000000816000815181106136a6576136a56150ff565b5b60200101907effffffffffffffffffffffffffffffffffffffffffffffffffffffffffffff1916908160001a9053507f78000000000000000000000000000000000000000000000000000000000000008160018151811061370a576137096150ff565b5b60200101907effffffffffffffffffffffffffffffffffffffffffffffffffffffffffffff1916908160001a9053506000600184600261374a91906152fe565b61375491906150a9565b90505b60018111156137f4577f3031323334353637383961626364656600000000000000000000000000000000600f861660108110613796576137956150ff565b5b1a60f81b8282815181106137ad576137ac6150ff565b5b60200101907effffffffffffffffffffffffffffffffffffffffffffffffffffffffffffff1916908160001a905350600485901c9450806137ed906159cc565b9050613757565b5060008414613838576040517f08c379a000000000000000000000000000000000000000000000000000000000815260040161382f90615a42565b60405180910390fd5b8091505092915050565b60006138638473ffffffffffffffffffffffffffffffffffffffff16613ca6565b156139bd578373ffffffffffffffffffffffffffffffffffffffff1663150b7a0261388c612982565b8786866040518563ffffffff1660e01b81526004016138ae9493929190615ab7565b6020604051808303816000875af19250505080156138ea57506040513d601f19601f820116820180604052508101906138e79190615b18565b60015b61396d573d806000811461391a576040519150601f19603f3d011682016040523d82523d6000602084013e61391f565b606091505b50600081511415613965576040517f08c379a000000000000000000000000000000000000000000000000000000000815260040161395c9061591a565b60405180910390fd5b805181602001fd5b63150b7a0260e01b7bffffffffffffffffffffffffffffffffffffffffffffffffffffffff1916817bffffffffffffffffffffffffffffffffffffffffffffffffffffffff1916149150506139c2565b600190505b949350505050565b60606000821415613a12576040518060400160405280600181526020017f30000000000000000000000000000000000000000000000000000000000000008152509050613b26565b600082905060005b60008214613a44578080613a2d90615191565b915050600a82613a3d9190615b74565b9150613a1a565b60008167ffffffffffffffff811115613a6057613a5f614361565b5b6040519080825280601f01601f191660200182016040528015613a925781602001600182028036833780820191505090505b5090505b60008514613b1f57600182613aab919061512e565b9150600a85613aba9190615ba5565b6030613ac691906150a9565b60f81b818381518110613adc57613adb6150ff565b5b60200101907effffffffffffffffffffffffffffffffffffffffffffffffffffffffffffff1916908160001a905350600a85613b189190615b74565b9450613a96565b8093505050505b919050565b6000613b36826116ce565b9050613b4481600084613601565b613b4f60008361298a565b6001600360008373ffffffffffffffffffffffffffffffffffffffff1673ffffffffffffffffffffffffffffffffffffffff1681526020019081526020016000206000828254613b9f919061512e565b925050819055506002600083815260200190815260200160002060006101000a81549073ffffffffffffffffffffffffffffffffffffffff021916905581600073ffffffffffffffffffffffffffffffffffffffff168273ffffffffffffffffffffffffffffffffffffffff167fddf252ad1be2c89b69c2b068fc378daa952ba7f163c4a11628f55a4df523b3ef60405160405180910390a45050565b60007f01ffc9a7000000000000000000000000000000000000000000000000000000007bffffffffffffffffffffffffffffffffffffffffffffffffffffffff1916827bffffffffffffffffffffffffffffffffffffffffffffffffffffffff1916149050919050565b600080823b905060008111915050919050565b828054613cc590614aba565b90600052602060002090601f016020900481019282613ce75760008555613d2e565b82601f10613d0057805160ff1916838001178555613d2e565b82800160010185558215613d2e579182015b82811115613d2d578251825591602001919060010190613d12565b5b509050613d3b9190613dc1565b5090565b508054613d4b90614aba565b6000825580601f10613d5d5750613d7c565b601f016020900490600052602060002090810190613d7b9190613dc1565b5b50565b5080546000825590600052602060002090810190613d9d9190613dde565b50565b5080546000825590600052602060002090810190613dbe9190613dc1565b50565b5b80821115613dda576000816000905550600101613dc2565b5090565b5b80821115613df7576000816000905550600101613ddf565b5090565b6000604051905090565b600080fd5b600080fd5b60007fffffffff0000000000000000000000000000000000000000000000000000000082169050919050565b613e4481613e0f565b8114613e4f57600080fd5b50565b600081359050613e6181613e3b565b92915050565b600060208284031215613e7d57613e7c613e05565b5b6000613e8b84828501613e52565b91505092915050565b60008115159050919050565b613ea981613e94565b82525050565b6000602082019050613ec46000830184613ea0565b92915050565b600081519050919050565b600082825260208201905092915050565b60005b83811015613f04578082015181840152602081019050613ee9565b83811115613f13576000848401525b50505050565b6000601f19601f8301169050919050565b6000613f3582613eca565b613f3f8185613ed5565b9350613f4f818560208601613ee6565b613f5881613f19565b840191505092915050565b60006020820190508181036000830152613f7d8184613f2a565b905092915050565b6000819050919050565b613f9881613f85565b8114613fa357600080fd5b50565b600081359050613fb581613f8f565b92915050565b600060208284031215613fd157613fd0613e05565b5b6000613fdf84828501613fa6565b91505092915050565b600073ffffffffffffffffffffffffffffffffffffffff82169050919050565b600061401382613fe8565b9050919050565b61402381614008565b82525050565b600060208201905061403e600083018461401a565b92915050565b61404d81614008565b811461405857600080fd5b50565b60008135905061406a81614044565b92915050565b60006020828403121561408657614085613e05565b5b60006140948482850161405b565b91505092915050565b600080604083850312156140b4576140b3613e05565b5b60006140c28582860161405b565b92505060206140d385828601613fa6565b9150509250929050565b6000819050919050565b6140f0816140dd565b82525050565b600060208201905061410b60008301846140e7565b92915050565b600081519050919050565b600082825260208201905092915050565b6000819050602082019050919050565b61414681613f85565b82525050565b6000614158838361413d565b60208301905092915050565b6000602082019050919050565b600061417c82614111565b614186818561411c565b93506141918361412d565b8060005b838110156141c25781516141a9888261414c565b97506141b483614164565b925050600181019050614195565b5085935050505092915050565b600060208201905081810360008301526141e98184614171565b905092915050565b600061ffff82169050919050565b614208816141f1565b811461421357600080fd5b50565b600081359050614225816141ff565b92915050565b6000806040838503121561424257614241613e05565b5b60006142508582860161405b565b925050602061426185828601614216565b9150509250929050565b60008060006060848603121561428457614283613e05565b5b60006142928682870161405b565b93505060206142a38682870161405b565b92505060406142b486828701613fa6565b9150509250925092565b6142c7816140dd565b81146142d257600080fd5b50565b6000813590506142e4816142be565b92915050565b600060208284031215614300576142ff613e05565b5b600061430e848285016142d5565b91505092915050565b6000806040838503121561432e5761432d613e05565b5b600061433c858286016142d5565b925050602061434d8582860161405b565b9150509250929050565b600080fd5b600080fd5b7f4e487b7100000000000000000000000000000000000000000000000000000000600052604160045260246000fd5b61439982613f19565b810181811067ffffffffffffffff821117156143b8576143b7614361565b5b80604052505050565b60006143cb613dfb565b90506143d78282614390565b919050565b600067ffffffffffffffff8211156143f7576143f6614361565b5b61440082613f19565b9050602081019050919050565b82818337600083830152505050565b600061442f61442a846143dc565b6143c1565b90508281526020810184848401111561444b5761444a61435c565b5b61445684828561440d565b509392505050565b600082601f83011261447357614472614357565b5b813561448384826020860161441c565b91505092915050565b600080fd5b600080fd5b600063ffffffff82169050919050565b6144af81614496565b81146144ba57600080fd5b50565b6000813590506144cc816144a6565b92915050565b600060e082840312156144e8576144e761448c565b5b6144f260e06143c1565b90506000614502848285016144bd565b6000830152506020614516848285016144bd565b602083015250604061452a848285016144bd565b604083015250606061453e848285016144bd565b606083015250608082013567ffffffffffffffff81111561456257614561614491565b5b61456e8482850161445e565b60808301525060a082013567ffffffffffffffff81111561459257614591614491565b5b61459e8482850161445e565b60a08301525060c06145b2848285016142d5565b60c08301525092915050565b6000806000606084860312156145d7576145d6613e05565b5b60006145e58682870161405b565b935050602084013567ffffffffffffffff81111561460657614605613e0a565b5b6146128682870161445e565b925050604084013567ffffffffffffffff81111561463357614632613e0a565b5b61463f868287016144d2565b9150509250925092565b61465281613f85565b82525050565b600060208201905061466d6000830184614649565b92915050565b61467c81614496565b82525050565b600060e082019050614697600083018a614673565b6146a46020830189614673565b6146b16040830188614673565b6146be6060830187614673565b81810360808301526146d08186613f2a565b905081810360a08301526146e48185613f2a565b90506146f360c08301846140e7565b98975050505050505050565b6000806040838503121561471657614715613e05565b5b600061472485828601613fa6565b925050602061473585828601613fa6565b9150509250929050565b61474881613e94565b811461475357600080fd5b50565b6000813590506147658161473f565b92915050565b6000806040838503121561478257614781613e05565b5b60006147908582860161405b565b92505060206147a185828601614756565b9150509250929050565b600067ffffffffffffffff8211156147c6576147c5614361565b5b6147cf82613f19565b9050602081019050919050565b60006147ef6147ea846147ab565b6143c1565b90508281526020810184848401111561480b5761480a61435c565b5b61481684828561440d565b509392505050565b600082601f83011261483357614832614357565b5b81356148438482602086016147dc565b91505092915050565b6000806000806080858703121561486657614865613e05565b5b60006148748782880161405b565b94505060206148858782880161405b565b935050604061489687828801613fa6565b925050606085013567ffffffffffffffff8111156148b7576148b6613e0a565b5b6148c38782880161481e565b91505092959194509250565b600080604083850312156148e6576148e5613e05565b5b60006148f4858286016142d5565b925050602061490585828601613fa6565b9150509250929050565b6000806040838503121561492657614925613e05565b5b60006149348582860161405b565b925050602083013567ffffffffffffffff81111561495557614954613e0a565b5b6149618582860161445e565b9150509250929050565b600081519050919050565b600082825260208201905092915050565b6000819050602082019050919050565b6149a0816140dd565b82525050565b60006149b28383614997565b60208301905092915050565b6000602082019050919050565b60006149d68261496b565b6149e08185614976565b93506149eb83614987565b8060005b83811015614a1c578151614a0388826149a6565b9750614a0e836149be565b9250506001810190506149ef565b5085935050505092915050565b60006020820190508181036000830152614a4381846149cb565b905092915050565b60008060408385031215614a6257614a61613e05565b5b6000614a708582860161405b565b9250506020614a818582860161405b565b9150509250929050565b7f4e487b7100000000000000000000000000000000000000000000000000000000600052602260045260246000fd5b60006002820490506001821680614ad257607f821691505b60208210811415614ae657614ae5614a8b565b5b50919050565b7f4552433732313a20617070726f76656420717565727920666f72206e6f6e657860008201527f697374656e7420746f6b656e0000000000000000000000000000000000000000602082015250565b6000614b48602c83613ed5565b9150614b5382614aec565b604082019050919050565b60006020820190508181036000830152614b7781614b3b565b9050919050565b7f4552433732313a20617070726f76616c20746f2063757272656e74206f776e6560008201527f7200000000000000000000000000000000000000000000000000000000000000602082015250565b6000614bda602183613ed5565b9150614be582614b7e565b604082019050919050565b60006020820190508181036000830152614c0981614bcd565b9050919050565b7f4552433732313a20617070726f76652063616c6c6572206973206e6f74206f7760008201527f6e6572206e6f7220617070726f76656420666f7220616c6c0000000000000000602082015250565b6000614c6c603883613ed5565b9150614c7782614c10565b604082019050919050565b60006020820190508181036000830152614c9b81614c5f565b9050919050565b7f54686973206164647265737320646f6573206e6f7420706f737365732074686960008201527f73204e4654000000000000000000000000000000000000000000000000000000602082015250565b6000614cfe602583613ed5565b9150614d0982614ca2565b604082019050919050565b60006020820190508181036000830152614d2d81614cf1565b9050919050565b7f45737461206375656e7461206e6f207469656e65207065726d69736f7320646560008201527f2061646d696e0000000000000000000000000000000000000000000000000000602082015250565b6000614d90602683613ed5565b9150614d9b82614d34565b604082019050919050565b60006020820190508181036000830152614dbf81614d83565b9050919050565b7f4c612066696e616e636965726120796120657374612072656769737472616461600082015250565b6000614dfc602083613ed5565b9150614e0782614dc6565b602082019050919050565b60006020820190508181036000830152614e2b81614def565b9050919050565b7f4552433732313a207472616e736665722063616c6c6572206973206e6f74206f60008201527f776e6572206e6f7220617070726f766564000000000000000000000000000000602082015250565b6000614e8e603183613ed5565b9150614e9982614e32565b604082019050919050565b60006020820190508181036000830152614ebd81614e81565b9050919050565b7f45737461206375656e7461206e6f207469656e65207065726d69736f7320646560008201527f206d696e74657200000000000000000000000000000000000000000000000000602082015250565b6000614f20602783613ed5565b9150614f2b82614ec4565b604082019050919050565b60006020820190508181036000830152614f4f81614f13565b9050919050565b7f416363657373436f6e74726f6c3a2063616e206f6e6c792072656e6f756e636560008201527f20726f6c657320666f722073656c660000000000000000000000000000000000602082015250565b6000614fb2602f83613ed5565b9150614fbd82614f56565b604082019050919050565b60006020820190508181036000830152614fe181614fa5565b9050919050565b7f45737461206375656e7461206e6f207469656e65207065726d69736f7320646560008201527f2066696e616e6369657261000000000000000000000000000000000000000000602082015250565b6000615044602b83613ed5565b915061504f82614fe8565b604082019050919050565b6000602082019050818103600083015261507381615037565b9050919050565b7f4e487b7100000000000000000000000000000000000000000000000000000000600052601160045260246000fd5b60006150b482613f85565b91506150bf83613f85565b9250827fffffffffffffffffffffffffffffffffffffffffffffffffffffffffffffffff038211156150f4576150f361507a565b5b828201905092915050565b7f4e487b7100000000000000000000000000000000000000000000000000000000600052603260045260246000fd5b600061513982613f85565b915061514483613f85565b9250828210156151575761515661507a565b5b828203905092915050565b7f4e487b7100000000000000000000000000000000000000000000000000000000600052603160045260246000fd5b600061519c82613f85565b91507fffffffffffffffffffffffffffffffffffffffffffffffffffffffffffffffff8214156151cf576151ce61507a565b5b600182019050919050565b7f4552433732313a206f776e657220717565727920666f72206e6f6e657869737460008201527f656e7420746f6b656e0000000000000000000000000000000000000000000000602082015250565b6000615236602983613ed5565b9150615241826151da565b604082019050919050565b6000602082019050818103600083015261526581615229565b9050919050565b7f4552433732313a2062616c616e636520717565727920666f7220746865207a6560008201527f726f206164647265737300000000000000000000000000000000000000000000602082015250565b60006152c8602a83613ed5565b91506152d38261526c565b604082019050919050565b600060208201905081810360008301526152f7816152bb565b9050919050565b600061530982613f85565b915061531483613f85565b9250817fffffffffffffffffffffffffffffffffffffffffffffffffffffffffffffffff048311821515161561534d5761534c61507a565b5b828202905092915050565b7f45524337323155524953746f726167653a2055524920717565727920666f722060008201527f6e6f6e6578697374656e7420746f6b656e000000000000000000000000000000602082015250565b60006153b4603183613ed5565b91506153bf82615358565b604082019050919050565b600060208201905081810360008301526153e3816153a7565b9050919050565b600081905092915050565b600061540082613eca565b61540a81856153ea565b935061541a818560208601613ee6565b80840191505092915050565b600061543282856153f5565b915061543e82846153f5565b91508190509392505050565b7f4552433732313a206f70657261746f7220717565727920666f72206e6f6e657860008201527f697374656e7420746f6b656e0000000000000000000000000000000000000000602082015250565b60006154a6602c83613ed5565b91506154b18261544a565b604082019050919050565b600060208201905081810360008301526154d581615499565b9050919050565b7f4552433732313a207472616e73666572206f6620746f6b656e2074686174206960008201527f73206e6f74206f776e0000000000000000000000000000000000000000000000602082015250565b6000615538602983613ed5565b9150615543826154dc565b604082019050919050565b600060208201905081810360008301526155678161552b565b9050919050565b7f4552433732313a207472616e7366657220746f20746865207a65726f2061646460008201527f7265737300000000000000000000000000000000000000000000000000000000602082015250565b60006155ca602483613ed5565b91506155d58261556e565b604082019050919050565b600060208201905081810360008301526155f9816155bd565b9050919050565b7f416363657373436f6e74726f6c3a206163636f756e7420000000000000000000600082015250565b60006156366017836153ea565b915061564182615600565b601782019050919050565b7f206973206d697373696e6720726f6c6520000000000000000000000000000000600082015250565b60006156826011836153ea565b915061568d8261564c565b601182019050919050565b60006156a382615629565b91506156af82856153f5565b91506156ba82615675565b91506156c682846153f5565b91508190509392505050565b7f4552433732313a206d696e7420746f20746865207a65726f2061646472657373600082015250565b6000615708602083613ed5565b9150615713826156d2565b602082019050919050565b60006020820190508181036000830152615737816156fb565b9050919050565b7f4552433732313a20746f6b656e20616c7265616479206d696e74656400000000600082015250565b6000615774601c83613ed5565b915061577f8261573e565b602082019050919050565b600060208201905081810360008301526157a381615767565b9050919050565b7f45524337323155524953746f726167653a2055524920736574206f66206e6f6e60008201527f6578697374656e7420746f6b656e000000000000000000000000000000000000602082015250565b6000615806602e83613ed5565b9150615811826157aa565b604082019050919050565b60006020820190508181036000830152615835816157f9565b9050919050565b7f4552433732313a20617070726f766520746f2063616c6c657200000000000000600082015250565b6000615872601983613ed5565b915061587d8261583c565b602082019050919050565b600060208201905081810360008301526158a181615865565b9050919050565b7f4552433732313a207472616e7366657220746f206e6f6e20455243373231526560008201527f63656976657220696d706c656d656e7465720000000000000000000000000000602082015250565b6000615904603283613ed5565b915061590f826158a8565b604082019050919050565b60006020820190508181036000830152615933816158f7565b9050919050565b7f4552433732314d657461646174613a2055524920717565727920666f72206e6f60008201527f6e6578697374656e7420746f6b656e0000000000000000000000000000000000602082015250565b6000615996602f83613ed5565b91506159a18261593a565b604082019050919050565b600060208201905081810360008301526159c581615989565b9050919050565b60006159d782613f85565b915060008214156159eb576159ea61507a565b5b600182039050919050565b7f537472696e67733a20686578206c656e67746820696e73756666696369656e74600082015250565b6000615a2c602083613ed5565b9150615a37826159f6565b602082019050919050565b60006020820190508181036000830152615a5b81615a1f565b9050919050565b600081519050919050565b600082825260208201905092915050565b6000615a8982615a62565b615a938185615a6d565b9350615aa3818560208601613ee6565b615aac81613f19565b840191505092915050565b6000608082019050615acc600083018761401a565b615ad9602083018661401a565b615ae66040830185614649565b8181036060830152615af88184615a7e565b905095945050505050565b600081519050615b1281613e3b565b92915050565b600060208284031215615b2e57615b2d613e05565b5b6000615b3c84828501615b03565b91505092915050565b7f4e487b7100000000000000000000000000000000000000000000000000000000600052601260045260246000fd5b6000615b7f82613f85565b9150615b8a83613f85565b925082615b9a57615b99615b45565b5b828204905092915050565b6000615bb082613f85565b9150615bbb83613f85565b925082615bcb57615bca615b45565b5b82820690509291505056fea264697066735822122032393896459af5c5ca178dc07fd706354c8e3c84be0308769bde3a0a2448344e64736f6c634300080a0033",
	"immutableReferences": {},
	"source": "// SPDX-License-Identifier: MIT\r\npragma solidity 0.8.10;\r\n\r\nimport \"@openzeppelin/contracts/token/ERC721/extensions/ERC721URIStorage.sol\";\r\nimport \"@openzeppelin/contracts/access/AccessControl.sol\";\r\n\r\n// import \"../node_modules/OpenZeppelin/contracts/token/ERC20/ERC20.sol\";\r\n// import \"../node_modules/OpenZeppelin/contracts/math/SafeMath.sol\";\r\n\r\ncontract MyNFT is ERC721URIStorage, AccessControl {\r\n\r\n    uint tokenId;\r\n\r\n\r\n    //Mapping from token NFT ID to metadata struct.\r\n    mapping (uint => Metadata) public structMetadata;\r\n    //Mapping from token NFT ID to metadata hash.\r\n    mapping (uint => bytes32) private hashMetadataBase;\r\n    //Mapping from fintech address to array storing all metadata hash of all NFT Id.\r\n    mapping (address => bytes32[]) private hashVecMetadataBaseInAddress;\r\n    //Mapping from fintech Id to fitech address.\r\n    mapping (uint => address) private fintechIdAddress;\r\n    //Mapping from fintech address to array storing all NFT IDs minted to that account.\r\n    mapping (address => uint[]) private nftsIdsInAddress;\r\n    //Stores a descriptions of the minter address\r\n    mapping (address => string) private descriptionMinterInAddress;\r\n    //Stores id of the fintech added.\r\n    uint [] public fintechId;\r\n\r\n    struct Metadata {\r\n        uint32 autonumericId;\r\n        uint32 loanId;\r\n        uint32 numeroDeCliente;\r\n        uint32 fintechId;\r\n        string fechaDeCreacion;\r\n        string uriImagen;\r\n        bytes32 hashRegistroBase;\r\n    }\r\n\r\n    //Constructor\r\n    /*************************************************************************************************************************************/\r\n    //Se inicializan los roles en forma de hash, a estos luego se les asignan addresses\r\n    //Initialiazing roles\r\n    bytes32 public constant MINTER_ROLE = keccak256(\"MINTER_ROLE\");\r\n    bytes32 public constant FINANCIERA_ROLE = keccak256(\"FINANCIERA_ROLE\");\r\n\r\n    constructor (string memory _name, string memory _symbol) ERC721(_name, _symbol) {\r\n        _setupRole(DEFAULT_ADMIN_ROLE, msg.sender);    //Funcion heredada de AccessControl que setea como admin a la cuenta que deploya\r\n    }\r\n\r\n    /**\r\n     * @dev See {IERC165-supportsInterface}.\r\n     */\r\n    function supportsInterface(bytes4 interfaceId) public view virtual override(ERC721, AccessControl) returns (bool) {\r\n        return super.supportsInterface(interfaceId);\r\n    }\r\n\r\n    /*************************************************************************************************************************************/\r\n\r\n\r\n\r\n\r\n\r\n    //Modifiers & verifications\r\n    /*************************************************************************************************************************************/\r\n\r\n\r\n    /**\r\n     *@dev Validates ownership of NTF\r\n     *Sender address should own the NFT assosiate to the token Id passed as argument.\r\n     *Caso contrario de retorno del mapping, el address no contiene el token ingresado.\r\n     *NOTE: ownerOf: @dev See {IERC721-ownerOf}.\r\n     */\r\n\r\n    modifier nftInAddress (uint _tokenNft){\r\n       require(ownerOf(_tokenNft) == msg.sender, \"This address does not posses this NFT\");\r\n       _;\r\n    }\r\n    \r\n    /**\r\n     *@dev Validates admin role.\r\n     *\r\n     *En caso de que no contenga los permisos se cortar la ejecucin y se notificar al usuario\r\n     */\r\n    modifier hasAdminRole(address _adminAddress){\r\n       require(hasRole(DEFAULT_ADMIN_ROLE, _adminAddress), \"Esta cuenta no tiene permisos de admin\");\r\n        _;\r\n    }\r\n\r\n    /**\r\n     *@dev Implementacion de chequeo de NFT\r\n     *Chequea si el address es minter o no. \r\n     *En caso de que no contenga los permisos se cortar la ejecucin y se notificar al usuario\r\n     */\r\n    modifier hasMinterRole(address _minterAddress){\r\n        require(hasRole(MINTER_ROLE, _minterAddress), \"Esta cuenta no tiene permisos de minter\");\r\n        _;\r\n    }\r\n\r\n    /**\r\n     *@dev Implementacion de chequeo de NFT\r\n     *Chequea si el address es financiera o no. \r\n     *En caso de que no contenga los permisos se cortar la ejecucin y se notificar al usuario\r\n     */\r\n    modifier hasFinancieraRole(address _financieraAddress){\r\n        require(hasRole(FINANCIERA_ROLE, _financieraAddress), \"Esta cuenta no tiene permisos de financiera\");\r\n        _;\r\n    }\r\n\r\n    /**\r\n     * @dev Chequea que el address enviado por parametro sea Admin.\r\n     * En el caso que el address sea admin, retornar true\r\n     * Caso contraro contrario retornar false\r\n     */\r\n    function isInAdminRole(address _address) public view returns (bool){\r\n        if (hasRole(DEFAULT_ADMIN_ROLE, _address)){\r\n            return true;\r\n        }\r\n        return false;\r\n    }\r\n\r\n    /**\r\n     * @dev Chequea que el address enviado por parametro sea Minter.\r\n     * En el caso que el address sea admin, retornar true\r\n     * Caso contraro contrario retornar false\r\n     */\r\n    function isInMinterRole(address _address) public view returns (bool){\r\n        if (hasRole(MINTER_ROLE, _address)){\r\n            return true;\r\n        }\r\n        return false;\r\n    }\r\n\r\n    /**\r\n     * @dev Chequea que el address enviado por parametro sea Financiera.\r\n     * En el caso que el address sea admin, retornar true\r\n     * Caso contraro contrario retornar false\r\n     */\r\n    function isInFinancieraRole(address _address) public view returns (bool){\r\n        if (hasRole(FINANCIERA_ROLE, _address)){\r\n            return true;\r\n        }\r\n        return false;\r\n    }\r\n\r\n    /*************************************************************************************************************************************/\r\n\r\n\r\n\r\n\r\n\r\n    //Setters\r\n    /*************************************************************************************************************************************/\r\n\r\n\r\n    /**\r\n     * @dev Dado un address se le otorga el rol de minter\r\n     */\r\n    function setMinterRole(address _minterAddress, string memory _description) public hasAdminRole(msg.sender){\r\n        grantRole(MINTER_ROLE,_minterAddress);\r\n        descriptionMinterInAddress[_minterAddress] = _description;\r\n    }\r\n\r\n    /**\r\n     *@dev Implementacion de agregado de permisos a address de financiera\r\n     *El address no debera estar registrado\r\n     *Setea el numero de token de financiera en 1\r\n     */\r\n\r\n    function agregarFinanciera (address _address, uint16 _fintechId) public hasAdminRole(msg.sender){\r\n        require(!hasRole(FINANCIERA_ROLE, _address), \"La financiera ya esta registrada\"); \r\n        fintechIdAddress[_fintechId] = _address;\r\n        grantRole(FINANCIERA_ROLE, _address);\r\n        fintechId.push(_fintechId);\r\n    }\r\n\r\n    /*************************************************************************************************************************************/\r\n\r\n\r\n\r\n\r\n\r\n    //Removers\r\n    /*************************************************************************************************************************************/\r\n\r\n    /**\r\n     * @dev Dado un address se le quita el rol de minter\r\n     */\r\n    function removeMinterRole(address _minterAddress) public hasAdminRole(msg.sender) hasMinterRole(_minterAddress){\r\n        revokeRole(MINTER_ROLE,_minterAddress);\r\n        delete descriptionMinterInAddress[_minterAddress];\r\n    }\r\n\r\n    /**\r\n     * @dev Dado un address se le quita el rol de financiera\r\n     */\r\n    function removeFinancieraRole(address _minterAddress) public hasAdminRole(msg.sender) hasAdminRole(_minterAddress){\r\n        revokeRole(FINANCIERA_ROLE,_minterAddress);\r\n    }\r\n\r\n    /**\r\n     * @dev Dado un id de financiera se quita el addres de los mappings y del array de ids.\r\n     * burn -> @dev See {ERC721-ERC721}.\r\n     */\r\n    function removeFinanciera(uint _idFinanciera) public hasAdminRole(msg.sender) hasFinancieraRole(fintechIdAddress[_idFinanciera]){\r\n\r\n        uint [] memory arrayNftsFinanciera = nftsIdsInAddress[fintechIdAddress[_idFinanciera]];\r\n        // Borro los nfts \r\n        for (uint i = 0; i < arrayNftsFinanciera.length; i++){\r\n            delete structMetadata[arrayNftsFinanciera[i]];\r\n            delete hashMetadataBase[arrayNftsFinanciera[i]];\r\n            _burn(arrayNftsFinanciera[i]);\r\n        }\r\n        \r\n        delete hashVecMetadataBaseInAddress[fintechIdAddress[_idFinanciera]];\r\n        delete nftsIdsInAddress[fintechIdAddress[_idFinanciera]];\r\n        removeFinancieraRole(fintechIdAddress[_idFinanciera]);\r\n        delete fintechIdAddress[_idFinanciera];\r\n\r\n        for(uint i = 0; i < fintechId.length;i++){\r\n            if (fintechId[i] == _idFinanciera){\r\n                uint aux = fintechId[fintechId.length-1];\r\n                fintechId[i] = aux;\r\n                fintechId.pop();\r\n                break;\r\n            }\r\n        }\r\n    }\r\n\r\n    /**\r\n     * @dev See {ERC721-ERC721}.\r\n     */\r\n    function quemarNft(uint _idNft) public hasAdminRole(msg.sender){\r\n        _burn(_idNft);\r\n\r\n    }\r\n\r\n    /*************************************************************************************************************************************/\r\n    \r\n\r\n\r\n\r\n\r\n    //Getters\r\n    /*************************************************************************************************************************************/\r\n\r\n\r\n    /**\r\n     * @dev Retorna el array con las ids de las financieras registradas \r\n     */\r\n    function getArrayIdsFintech() public view returns(uint[] memory){\r\n        return fintechId;\r\n    }\r\n    \r\n    /**\r\n     * @dev Dado un address retorna la cantidad de nfts \r\n     */\r\n    function getNftsInAddress() public view hasFinancieraRole(msg.sender) returns (uint[] memory){\r\n        return nftsIdsInAddress[msg.sender];\r\n    }\r\n\r\n    /**\r\n     * @dev \r\n     */\r\n    function devolverPagina(uint numeroDePag, uint tamanioDePagina) public view returns (uint[] memory){\r\n        uint inicioDePagina = numeroDePag * tamanioDePagina;\r\n        uint [] memory arrayDeRetorno = new uint[] (tamanioDePagina);\r\n        uint aux = 0;\r\n\r\n        for(uint i = inicioDePagina; (i < inicioDePagina + tamanioDePagina) && (i < (nftsIdsInAddress[msg.sender]).length - 1); i++){\r\n            arrayDeRetorno[aux] = ((nftsIdsInAddress[msg.sender])[i]);\r\n            aux++;\r\n        }\r\n\r\n        return arrayDeRetorno;\r\n    }\r\n\r\n    /**\r\n     *@dev Implementacion de retorno de address por tokenId de financiera\r\n     *El address no debera estar registrado\r\n     *Setea el numero de token de financiera en 1\r\n     */\r\n\r\n    function getAddressFinanciera (uint _idFinanciera) public view hasMinterRole(msg.sender) returns(address){\r\n        return fintechIdAddress[_idFinanciera];\r\n    }\r\n\r\n    /**\r\n     *@dev Implementacion de comparacin de metadata ingresada con la metadata de un token especifico\r\n     *El token debe existir\r\n     *Retorna un booleano en base a la comparacin de la metadata\r\n     */\r\n     // Hay que ver como hasheamos y editarla\r\n    function compareMeta(bytes32 _hashMetadata, uint _tokenNft) public view returns(bool){\r\n        if (_hashMetadata == hashMetadataBase[_tokenNft]) {\r\n            return true;\r\n        }\r\n        return false;\r\n    }\r\n\r\n    /**\r\n     *@dev Implementacion de retorno de la metadata codificada para un nft especifico\r\n     *El token debe existir, solo puede ejectutar la cuenta duea del nft\r\n     *Retorna el hash de la metadata asociado al tokenID del nft\r\n     */\r\n\r\n    function getHashMetadataHashBase(uint _tokenNft) public view nftInAddress(_tokenNft) returns(bytes32){\r\n        return hashMetadataBase[_tokenNft];\r\n    }\r\n\r\n    /**\r\n     *@dev Implementacion de retorno de la metadata codificada para todo el array de nfts de la direccion\r\n     *El token debe existir, solo puede ejectutar la cuenta duea del nft\r\n     *Retorna el hash de la metadata asociado a los tokenID del vector de nfts\r\n     */\r\n\r\n    function getVecHashMetadataBaseInAddress(address _address) public view returns(bytes32[] memory){\r\n        return hashVecMetadataBaseInAddress[_address];\r\n    }\r\n\r\n    /**\r\n     *@dev Retorna la descripcin asociada al minter\r\n     */\r\n\r\n    function getDescriptionMinter(address _minterAddress) public view returns(string memory){\r\n        return descriptionMinterInAddress[_minterAddress];\r\n    }\r\n\r\n    /*************************************************************************************************************************************/\r\n\r\n\r\n\r\n\r\n    \r\n    //Transfer\r\n    /*************************************************************************************************************************************/\r\n\r\n    /**\r\n     * @dev See {IERC721-transferFrom}.\r\n     */\r\n    function transferNft(address _to, uint _nftId) public hasFinancieraRole(msg.sender) {\r\n\r\n        //Mapping from fintech address to array storing all NFT IDs minted to that account.\r\n        //mapping (address => uint[]) private nftsIdsInAddress;\r\n        \r\n        transferFrom(msg.sender, _to, _nftId);\r\n\r\n        nftsIdsInAddress[_to].push(_nftId);\r\n\r\n        uint [] memory arrayNftsFinanciera = nftsIdsInAddress[msg.sender];\r\n\r\n        for(uint i = 0; i < arrayNftsFinanciera.length; i++){\r\n            if (arrayNftsFinanciera[i] == _nftId){\r\n                uint aux = arrayNftsFinanciera[arrayNftsFinanciera.length-1];\r\n                arrayNftsFinanciera[i] = aux;\r\n                nftsIdsInAddress[msg.sender].pop();      //Chequear si al transferir funciona\r\n                break;\r\n            }\r\n        }\r\n        \r\n    }\r\n\r\n    /*************************************************************************************************************************************/\r\n\r\n\r\n\r\n\r\n\r\n\r\n    //Mint\r\n    /*************************************************************************************************************************************/\r\n\r\n    /**\r\n     * @dev See {IERC721Metadata-tokenURI}.\r\n     */\r\n\r\n    function _baseURI() internal view override virtual returns (string memory) {\r\n        return \"https://ipfs.io/ipfs/\";\r\n     }\r\n\r\n    /**\r\n     * @dev See {ERC721/ERC721-_mint}.\r\n     * NOTE: Se agrega al mapeo del tokenid la metadata ingresada previamente\r\n     */\r\n\r\n    function mintNFT(address _recipient, string memory _tokenURI, Metadata memory _metadata) public hasMinterRole(msg.sender)\r\n                                                                                                    hasFinancieraRole(_recipient) \r\n     returns (bytes32){\r\n        \r\n        tokenId += 1;\r\n        structMetadata[tokenId] = _metadata;\r\n        nftsIdsInAddress[_recipient].push(tokenId);\r\n        hashMetadataBase[tokenId] = _metadata.hashRegistroBase;\r\n        hashVecMetadataBaseInAddress[_recipient].push(_metadata.hashRegistroBase);\r\n\r\n        _mint(_recipient, tokenId);\r\n        _setTokenURI(tokenId, _tokenURI);\r\n\r\n        return   hashMetadataBase[tokenId];\r\n    }\r\n\r\n    /*************************************************************************************************************************************/\r\n}",
	"sourcePath": "C:\\Users\\Complex\\Documents\\ActionFintech\\FintechMarket\\ActionMarket\\contracts\\MetaCoin.sol",
	"compiler": {
		"name": "solc",
		"version": "0.8.10+commit.fc410830.Emscripten.clang"
	},
	"schemaVersion": "3.4.4",
	"updatedAt": "2021-12-22T16:36:54.168Z",
	"devdoc": {
		"kind": "dev",
		"methods": {
			"agregarFinanciera(address,uint16)": {
				"details": "Implementacion de agregado de permisos a address de financiera El address no debera estar registrado Setea el numero de token de financiera en 1"
			},
			"approve(address,uint256)": {
				"details": "See {IERC721-approve}."
			},
			"balanceOf(address)": {
				"details": "See {IERC721-balanceOf}."
			},
			"compareMeta(bytes32,uint256)": {
				"details": "Implementacion de comparacin de metadata ingresada con la metadata de un token especifico El token debe existir Retorna un booleano en base a la comparacin de la metadata"
			},
			"getAddressFinanciera(uint256)": {
				"details": "Implementacion de retorno de address por tokenId de financiera El address no debera estar registrado Setea el numero de token de financiera en 1"
			},
			"getApproved(uint256)": {
				"details": "See {IERC721-getApproved}."
			},
			"getArrayIdsFintech()": {
				"details": "Retorna el array con las ids de las financieras registradas "
			},
			"getDescriptionMinter(address)": {
				"details": "Retorna la descripcin asociada al minter"
			},
			"getHashMetadataHashBase(uint256)": {
				"details": "Implementacion de retorno de la metadata codificada para un nft especifico El token debe existir, solo puede ejectutar la cuenta duea del nft Retorna el hash de la metadata asociado al tokenID del nft"
			},
			"getNftsInAddress()": {
				"details": "Dado un address retorna la cantidad de nfts "
			},
			"getRoleAdmin(bytes32)": {
				"details": "Returns the admin role that controls `role`. See {grantRole} and {revokeRole}. To change a role's admin, use {_setRoleAdmin}."
			},
			"getVecHashMetadataBaseInAddress(address)": {
				"details": "Implementacion de retorno de la metadata codificada para todo el array de nfts de la direccion El token debe existir, solo puede ejectutar la cuenta duea del nft Retorna el hash de la metadata asociado a los tokenID del vector de nfts"
			},
			"grantRole(bytes32,address)": {
				"details": "Grants `role` to `account`. If `account` had not been already granted `role`, emits a {RoleGranted} event. Requirements: - the caller must have ``role``'s admin role."
			},
			"hasRole(bytes32,address)": {
				"details": "Returns `true` if `account` has been granted `role`."
			},
			"isApprovedForAll(address,address)": {
				"details": "See {IERC721-isApprovedForAll}."
			},
			"isInAdminRole(address)": {
				"details": "Chequea que el address enviado por parametro sea Admin. En el caso que el address sea admin, retornar true Caso contraro contrario retornar false"
			},
			"isInFinancieraRole(address)": {
				"details": "Chequea que el address enviado por parametro sea Financiera. En el caso que el address sea admin, retornar true Caso contraro contrario retornar false"
			},
			"isInMinterRole(address)": {
				"details": "Chequea que el address enviado por parametro sea Minter. En el caso que el address sea admin, retornar true Caso contraro contrario retornar false"
			},
			"mintNFT(address,string,(uint32,uint32,uint32,uint32,string,string,bytes32))": {
				"details": "See {ERC721/ERC721-_mint}. NOTE: Se agrega al mapeo del tokenid la metadata ingresada previamente"
			},
			"name()": {
				"details": "See {IERC721Metadata-name}."
			},
			"ownerOf(uint256)": {
				"details": "See {IERC721-ownerOf}."
			},
			"quemarNft(uint256)": {
				"details": "See {ERC721-ERC721}."
			},
			"removeFinanciera(uint256)": {
				"details": "Dado un id de financiera se quita el addres de los mappings y del array de ids.See {ERC721-ERC721}."
			},
			"removeFinancieraRole(address)": {
				"details": "Dado un address se le quita el rol de financiera"
			},
			"removeMinterRole(address)": {
				"details": "Dado un address se le quita el rol de minter"
			},
			"renounceRole(bytes32,address)": {
				"details": "Revokes `role` from the calling account. Roles are often managed via {grantRole} and {revokeRole}: this function's purpose is to provide a mechanism for accounts to lose their privileges if they are compromised (such as when a trusted device is misplaced). If the calling account had been revoked `role`, emits a {RoleRevoked} event. Requirements: - the caller must be `account`."
			},
			"revokeRole(bytes32,address)": {
				"details": "Revokes `role` from `account`. If `account` had been granted `role`, emits a {RoleRevoked} event. Requirements: - the caller must have ``role``'s admin role."
			},
			"safeTransferFrom(address,address,uint256)": {
				"details": "See {IERC721-safeTransferFrom}."
			},
			"safeTransferFrom(address,address,uint256,bytes)": {
				"details": "See {IERC721-safeTransferFrom}."
			},
			"setApprovalForAll(address,bool)": {
				"details": "See {IERC721-setApprovalForAll}."
			},
			"setMinterRole(address,string)": {
				"details": "Dado un address se le otorga el rol de minter"
			},
			"supportsInterface(bytes4)": {
				"details": "See {IERC165-supportsInterface}."
			},
			"symbol()": {
				"details": "See {IERC721Metadata-symbol}."
			},
			"tokenURI(uint256)": {
				"details": "See {IERC721Metadata-tokenURI}."
			},
			"transferFrom(address,address,uint256)": {
				"details": "See {IERC721-transferFrom}."
			},
			"transferNft(address,uint256)": {
				"details": "See {IERC721-transferFrom}."
			}
		},
		"version": 1
	},
	"userdoc": {
		"kind": "user",
		"methods": {},
		"version": 1
	}
}